:040000000C946600F6
:040038000C94C5035C
:14008C003F065B4F666D7D077F6F777C395E79710000007A3E
:1400A000440000C8420000104100000047000020410000C63F
:1400B4004200C07944ACC52737FFFFFF7F00000000008000AE
:0300C80000000035
:1400CC00CFE5D0E1CDBFDEBFCE51D0400AEA08830024E4E0FC
:1400E000F1E011E0E830F10711F00192FBCF0083E7ECF0E0B6
:1400F400A0E0B1E010E0EB3CF10721F0C89531960D92F9CF3C
:140108000E94F903FFCF000008950E94F004B80144275527A4
:14011C0003C0F7DF4F5F5F4F46175707D0F30E94E704089532
:140130000027112702C00F5F1F4F0437E4E01E07D0F308953A
:140144000E94F004B8014427552703C0EFDF4F5F5F4F461727
:140158005707D0F30E94E7040895A79A85B3807885BB8FE028
:14016C0088BB0E94980480E180930401809305018093060152
:140180008093070108950E94F204402FC098042F0E949E04DD
:14019400C09A0E94F50408958CE890E0E0910401FF27E80F4E
:1401A800F91F0691ECDFBC9AC49A0CE310E00E948900BC9AB5
:1401BC00C4988CE890E0E0910501FF27E80FF91F0691DBDFF2
:1401D00080910001813071F480910101813051F48CE890E006
:1401E400E0910501FF27E80FF91F06910068C9DFBD9AC59AFE
:1401F8000CE310E00E948900BD9AC5988CE890E0E0910601D9
:14020C00FF27E80FF91F0691B8DF80910001813071F4809142
:140220000101823051F48CE890E0E0910601FF27E80FF91F40
:1402340006910068A6DFBE9AC69A0CE310E00E948900BE9A18
:14024800C6988CE890E0E0910701FF27E80FF91F069195DFA7
:14025C0080910001813071F480910101833051F48CE890E077
:14027000E0910701FF27E80FF91F0691006883DFBF9AC79AB1
:140284000CE310E00E948900BF9AC79808950E94F204A801C6
:140298008FE097E28417950730F40FEF70DF88B3806F88BB55
:1402AC007FC087EE93E08417950730F528EE33E08A010E9465
:1402C000A9040093070128EE33E08A010E94A70424E630E0C7
:1402D4000E94A9040093060124E630E08A010E94A7042AE031
:1402E80030E00E94A904009305012AE030E08A010E94A70418
:1402FC00009304014DDF54C083E690E08417950710F580E1A0
:140310008093070128EE33E08A010E94A70424E630E00E9401
:14032400A9040093060124E630E08A010E94A7042AE030E072
:140338000E94A904009305012AE030E08A010E94A704009344
:14034C00040126DF2DC089E090E084179507C8F480E1809366
:1403600007018093060124E630E08A010E94A7042AE030E05B
:140374000E94A904009305012AE030E08A010E94A704009308
:14038800040108DF0FC080E1809307018093060180930501F7
:14039C002AE030E08A010E94A70400930401F8DE0E94F50452
:1403B00008950E94A2040E94F0042497FE01208431844284E5
:1403C40053845A924A923A922A9209EB10E00E94C3043A93E4
:1403D8002A931A930A930E949B05FE01008711872287338747
:1403EC0081E08093000105EB10E00E94C3043A932A931A9308
:140400000A93FE0124843584468457845A924A923A922A92F6
:140414000E94F90534F40FEFB4DE88B3806F88BB8EC101EBD4
:1404280010E00E94C3043A932A931A930A93FE012484358433
:14043C00468457845A924A923A922A920E94F9050CF077C0E4
:140450000DEA10E00E94C3043A932A931A930A93FE012484CD
:140464003584468457845A924A923A922A920E942D06FE0102
:140478000083118322833383FE0120803180428053805A922D
:14048C004A923A922A9209EA10E00E94C3043A932A931A9375
:1404A0000A930E94F905CCF0FE0120803180428053805A927E
:1404B4004A923A922A9209EA10E00E94C3043A932A931A934D
:1404C8000A930E94A3050E942605B8016050704808C0FE0184
:1404DC0000811181228133810E942605B801AB0181E08093FC
:1404F000010128EE33E08A010E94A9040093070128EE33E02F
:140504008A010E94A70424E630E00E94A9040093060124E6FE
:1405180030E08A010E94A7042AE030E00E94A90400930501E5
:14052C002AE030E08A010E94A7040093040130DE02C105EA71
:1405400010E00E94C3043A932A931A930A93FE01248435841A
:14055400468457845A924A923A922A920E94F9050CF077C0CB
:1405680001EA10E00E94C3043A932A931A930A93FE012484C0
:14057C003584468457845A924A923A922A920E942D06FE01E9
:140590000083118322833383FE0120803180428053805A9214
:1405A4004A923A922A9209EA10E00E94C3043A932A931A935C
:1405B8000A930E94F905CCF0FE0120803180428053805A9265
:1405CC004A923A922A9209EA10E00E94C3043A932A931A9334
:1405E0000A930E94A3050E942605B8016050704808C0FE016B
:1405F40000811181228133810E942605B801AB0182E08093E2
:14060800010128EE33E08A010E94A9040093070128EE33E015
:14061C008A010E94A70424E630E00E94A9040093060124E6E5
:1406300030E08A010E94A7042AE030E00E94A90400930501CC
:140644002AE030E08A010E94A70400930401A4DD76C00DE96B
:1406580010E00E94C3043A932A931A930A93FE012484358401
:14066C00468457845A924A923A922A920E942D06FE0100832E
:14068000118322833383FE0120803180428053805A924A92CA
:140694003A922A9209EA10E00E94C3043A932A931A930A93AA
:1406A8000E94F905CCF0FE0120803180428053805A924A9235
:1406BC003A922A9209EA10E00E94C3043A932A931A930A9382
:1406D0000E94A3050E942605B8016050704808C0FE01008196
:1406E4001181228133810E942605B801AB0183E0809301016F
:1406F80028EE33E08A010E94A9040093070128EE33E08A019C
:14070C000E94A70424E630E00E94A9040093060124E630E06F
:140720008A010E94A7042AE030E00E94A904009305012AE0E1
:1407340030E08A010E94A704009304012DDD2224209200012E
:1407480024960E94E7042496089522242EBC8FE88DBD81E8A5
:14075C008CBD80E78BBD8FE78ABD80E789BD8FE788BD80E705
:14077000809379008FE78093780080E787BD8FE786BD2FBC99
:1407840084E08EBD08952A923A928A939A932FB62A928FE82B
:140798008DBD81E88CBD80910201909103010196909303015A
:1407AC00809302018FE097E220900201309003018215930595
:1407C00030F422243324309203012092020129902FBE999119
:1407D4008991399029901895F894B9DF84E087BF7894089551
:1407E800222421BA8FEF82BB0895662777274427F1DF0E947C
:1407FC00B100F4DF95C0809915C0442341F06627772708EC6B
:1408100010E00E94A20044270BC06F30E7E27E0738F46F5F83
:140824007F4F08EC10E00E94A2004427819911C0442309F014
:1408380044276030670759F061507040442708EC10E00E94A8
:14084C00A20008EC10E00E94A20082992EC0442321F481E0E8
:1408600090E06C0102C0CC24DD24423021F481E090E05C013F
:1408740002C0AA24BB2416012A283B28222011F4332041F06A
:1408880061E070E008EC10E00E94A20041E00FC06F30E7E24B
:14089C007E0758F46E5F7F4F41E008EC10E00E94A20008EC9F
:1408B00010E00E94A200839931C0442321F481E090E06C0139
:1408C40002C0CC24DD24413021F481E090E05C0102C0AA2429
:1408D800BB2416012A283B28222011F4332041F062E070E004
:1408EC0008EC10E00E94A20042E012C06030E0E27E0770F4A1
:1409000002E010E09B010E94D704B80108EC10E00E94A20017
:1409140008EC10E00E94A200849903C04427662777278B01A5
:140928000E9449016ACF089587B3876087BB83E58DB908954B
:14093C000FB9779BFECF08953A932A931A930A9308956894F6
:1409500001C0E894EA92FA928A93EE24FF2480E1000F111F5C
:14096400EE1CFF1CE216F30618F0E21AF30A03958A95A1F719
:1409780016F40E2D1F2D8991F990E9900895EA93FA930A927B
:14098C00E02FF12FD895002D3196D895102D3196D895202D9C
:1409A0003196D895302D0990F991E99108950A921A928A9313
:1409B4009A93029FC001129F900D039F900D8C019991899142
:1409C800199009900895E2E00C94F604FA92EA92DA92CA9210
:1409DC00BA92AA927A936A935A934A930895E1E04991599189
:1409F000E0FD089569917991E1FD0895A990B990E2FD0895FC
:140A0400C990D990E3FD0895E990F990089500951095209511
:140A180030950F5F1F4F2F4F3F4F0895EA93FA930A92E02FCB
:140A2C00F12FC895002D3196C895102D3196C895202D319673
:140A4000C895302D0990F991E99108950E94770614D0022F7A
:140A5400132F87FD02C00C947A06109501951F4F0C947A061D
:140A68000E94770608D087FF02C00E9409050C947A06BEE0CD
:140A7C0001C0BEE10E947D0669F0B31B09F072F4882322F09E
:140A900010E00DEB0C94120510E003EC0C94120510E001EC40
:140AA4000C9412053395D2F330E0B85052F4B85F322F212FD4
:140AB800102F00E806C0012F122F20E0B850B830D0F7BB2337
:140ACC0031F03695279517950795BA95D1F70895DA92EA928A
:140AE000FA928A932A923A924A929A93AA93BA930895B99157
:140AF400A99199914990399029908991F990E990D99008950D
:140B08002A843B844C849D8508950E851F8528893989089596
:140B1C00EADF0F920FB628960FBE0F900895D8DFF2DFECCF8C
:140B300002D00C94A2040E94950512D00C948E0502D00C94D6
:140B4400A2040E94950509D00C948E058A2F392F242D132DFD
:140B5800022D0C94BD0690580E94AB069038C9F3303891F34C
:140B6C00B32FB91BA3F32AF039F402151305240518F40E94DC
:140B80009F06F4CFB83118F0222433244424B83028F0232CB4
:140B9400342C4424B850F9CFBB2329F0469437942794BA950F
:140BA800D9F7B82FBA274AF018D098F62795179507953F5F4F
:140BBC0073F60C948C0613D011F40C94930610F40E94860637
:140BD00022231AF2000F111F221F3150CBF70C948C06020DBC
:140BE400131D241D089502191309240908950E94950502D0E0
:140BF8000C948E0502D0BB230895332382F0992342F0391763
:140C0C0040F029F402151305240518F021F0B1E00895BFEF3A
:140C20000895BB2708959923D2F73917B0F3B9F7021513054D
:140C3400240588F3A1F3F1CFBFE73B2F2B2B0FEF1FEF0895A5
:140C480000271127222733278827089502D00C94A2040E9490
:140C5C0095050F92CF9204D0CF900F900C948E050E94AB0690
:140C700059F3903849F38A270894391FFBF20ED02F2D1E2D09
:140C84000D2D22232AF03A95CC0C001F111F221F3F5F93F269
:140C98000C94BD06229DC02CD12C249DE02CF12C129DC10CD7
:140CAC00DB1EEB1EFB1E039DC10CDB1EEB1EFB1E139DC00C15
:140CC000D11CEB1EFB1E049DC00CD11CEB1EFB1E239DD00CF9
:140CD400E11CFB1E149DD00CE11CFB1ECC2022F48894DB1E3C
:140CE800EB1EFB1E08958A93BA930895B99189910895832F7F
:140CFC008078220F331F30580894279530380895109520952A
:140D100001951F4F2F4F0895BFE73B2F2B2BBFEF0B2F1B2F18
:140D24000895002711272227332788270895932F202E312E61
:140D3800422EA82F08952A923A924A929A93AA93F4DF899108
:140D4C0039912991199109910895832FB0E8220F331F3B27FF
:140D6000BB0F27958078A92FB0E8440C991F9B27BB0F479422
:140D7400A07830380895220FB0E8B327880FB79527953B2FA2
:020D88000895CC
:00000001FF
