:040000000C942B0031
:04004C000C944E00C2
:140054000000CFE5D4E0CDBFDEBFCE51D0400AEA0883002435
:14006800E2E6F0E010E0E236F10711F00192FBCF0083E4E542
:14007C00F0E0A0E6B0E010E000E00BBFE635F10721F0C8956F
:1400900031960D92F9CF0E947600FFCF2A923A928A939A9376
:1400A400AA93EA932FB62A9280916000909161000196909340
:1400B800610080936000883EE3E09E0751F480E22BB2282660
:1400CC002BBA22243324309261002092600029902FBEE99149
:1400E000A9919991899139902990189522242BBA8FEF8ABB71
:1400F4008BE083BF22BE8EE38CBF82E089BF7894FFCF08958E
:00000001FF
