:040000000C942F002D
:140054003F065B4F666D7D077F6FCFE5D4E0CDBFDEBFCE51B4
:14006800D0400AEA08830024EAE6F0E010E0EA36F10711F028
:14007C000192FBCF0083E4E5F0E0A0E6B0E010E000E00BBF47
:14009000EE35F10721F0C89531960D92F9CF0E94A700FFCF8E
:1400A4008FEF8ABB22242BBA87BB88BB2ABA8BBB08954A9331
:1400B8005A930AC041E050E002C04F5F5F4F84E690E0841799
:1400CC009507C8F7C80101978C010030010781F75991499163
:1400E00008950E944601580144272CC0662727C001E0162F3C
:1400F4000E945401202E209428BA623071F4E62FFF27EA0DF4
:14010800FB1DE081FF2780E690E0E80FF91F808180688BBB30
:14011C000CC0E62FFF27EA0DFB1DE081FF2780E690E0E80F65
:14013000F91F20802BBA05E010E0BDDF63956430B8F243959F
:14014400483208F4D1CF0C944D01249744276627AA24A6DF9D
:140158007EC0442779C0662773C01AE0062F0E942E01088366
:14016C001AE0062F0E94300109831AE0042F0E942E010A8366
:140180001AE0042F0E9430010B838E01AADF80995AC0442727
:1401940055C066274FC01AE0062F0E942E0108831AE0062FEC
:1401A8000E94300109831AE0042F0E942E010A831AE0042F2C
:1401BC000E9430010B838E018EDF819936C016C01AE0062FBD
:1401D0000E942E0108831AE0062F0E94300109831AE0042F04
:1401E4000E942E010A831AE0042F0E9430010B838E0175DF38
:1401F800E9CF1BC017C01AE0062F0E942E0108831AE0062FCF
:14020C000E94300109831AE0042F0E942E010A831AE0042FC7
:140220000E9430010B838E015CDF63956C3338F343954C3386
:1402340018F363956C3308F4AECF43954C3308F4A8CF6395D9
:140248006C3308F48ACF43954C3308F484CF81CF2496089561
:14025C00689401C0E8942A93FA92EA92FF24EE2420E1000F4B
:14027000FF1CEE1CE11610F0E11A03952A95B9F70EF40E2D1F
:14028400E990F990299108957A936A935A934A93BA92AA92B1
:140298000895A990B99049915991699179910895112319F091
:0802AC00000F1A95FBCF089525
:00000001FF
