:040000000C942F002D
:140054003F065B4F666D7D077F6FCFE5D4E0CDBFDEBFCE51B4
:14006800D0400AEA08830024EAE6F0E010E0EA36F10711F028
:14007C000192FBCF0083E4E5F0E0A0E6B0E010E000E00BBF47
:14009000EE35F10721F0C89531960D92F9CF0E949600FFCF9F
:1400A4008FEF8ABB22242BBA87BB88BB24BA85BB08954A933D
:1400B8005A930AC041E050E002C04F5F5F4F84E690E0841799
:1400CC009507C8F7C80101978C010030010781F75991499163
:1400E00008950E94AB01580144271CC0662717C001E0162FF7
:1400F4000E94B901202E209428BAE62FFF27EA0DFB1DE0810D
:14010800FF2780E690E0E80FF91F20802BBA05E010E0CDDFD2
:14011C006395643038F34395483210F30C94B201249744274A
:1401300055276627B7DFD2C0989909C04F30E7E25E071CF4D3
:140144004F5F5F4F02C04FE057E299990AC02224332424164E
:1401580035061CF44150504002C0442755279A990BC06130EF
:14016C0039F041E050E008EC10E09FDF61E002C0440F551FD9
:140180009B990FC0623039F04EE057E208EC10E092DF62E0AF
:1401940006C022E030E08A010E947501A8019C990BC06330A0
:1401A80039F041E050E008EC10E081DF63E002C04E5F5F4F25
:1401BC009D990BC0643039F042E050E008EC10E074DF64E0A4
:1401D00002C04E5F5F4F9E995BC0442755272AE030E08A0120
:1401E4000E94710108832AE030E08A010E9475012AE030E091
:1401F8000E947101098324E630E08A010E9475012AE030E07C
:14020C000E9471010A8328EE33E08A010E9475010B838E0154
:1402200060DF08EC10E047DF4F5F5F4F4A30E0E05E07ACF2E8
:1402340049E050E02AE030E08A010E94710108832AE030E0FF
:140248008A010E9475012AE030E00E947101098324E630E02B
:14025C008A010E9475012AE030E00E9471010A8328EE33E007
:140270008A010E9475010B838E0133DF08EC10E01ADF41503A
:14028400504081E090E084179507A4F29F9902C04427552757
:140298002AE030E08A010E94710108832AE030E08A010E94C7
:1402AC0075012AE030E00E947101098324E630E08A010E94C7
:1402C00075012AE030E00E9471010A8328EE33E08A010E94A3
:1402D40075010B838E0103DF2DCF249608956894DA92D12EE7
:1402E80004C0E894DA92D12ED32617FF04C0109500950F5FDC
:1402FC001F4F37FF04C0309520952F5F3F4F0E949201D7FEE6
:1403100004C0109500950F5F1F4FD9900895689401C0E894C0
:14032400EA92FA928A93EE24FF2480E1000F111FEE1CFF1CA6
:14033800E216F30618F0E21AF30A03958A95A1F716F40E2D2B
:14034C001F2D8991F990E99008957A936A935A934A93BA9278
:14036000AA920895A990B99049915991699179910895112395
:0A03740019F0000F1A95FBCF089551
:00000001FF
