:040000000C94560006
:14005400003E4141413E0000000000217F0100000027454507
:14006800453900000022494949360000000C14247F0400000C
:14007C0000725151514E0000003E49494926000000404040BE
:140090004F700000003649494936000000324949493E00000B
:1400A4008040201008040201CFE5D4E0CDBFDEBFCE51D04089
:1400B8000AEA08830024E8EBF0E010E0E83BF10711F001924F
:1400CC00FBCF0083E4E5F0E0A0E6B0E010E000E00BBFEC3A64
:1400E000F10721F0C89531960D92F9CF0E94A500FFCF8FEFE5
:1400F40084BB85BB81BB82BB22242ABA8BBB08954A934427AB
:140108001CC0202E3324220C331C220C331C220C331CE42FD8
:14011C00FF27E20DF31D80E690E0E80FF91F208025BA80EBDB
:1401300090E0E42FFF27E80FF91F2080209422BA4395483083
:1401440010F349910895219789E08883CC246627AA24BB24D7
:14015800CCDF7AC089E0888310C0AA24BB2405C00881CCDFC4
:14016C00C50101965C0180ED97E08A159B05B0F708800A94D5
:14018000088280E00880801560F38881893019F441E050E0F1
:1401940002C044275527662321F481E090E07C0102C0EE24EE
:1401A800FF241A012E203F202220A1F6332091F6C8990AC07A
:1401BC0061E08881893020F4082E0394088202C00024088251
:1401D000C99909C080E00880801518F40A94088202C089E014
:1401E4008883CA9917C00024088210C0AA24BB2405C0088149
:1401F80085DFC50101965C0180ED97E08A159B05B0F7088083
:14020C000394088289E00880801560F7CB9902C0002408820C
:14022000CC9902C084E18883C880CD9901C0C882CE9901C052
:14023400C882AA24BB2405C0088162DFC50101965C0180ED09
:0E02480097E08A159B05B0F79CCF219608958C
:00000001FF
