:0C0000000C9430000C947C000C949B00CD
:0B0054003F065B4F666D7D077F6F006D
:14006000CFE5D4E0CDBFDEBFCE51D0400AEA08830024EBE658
:14007400F0E010E0EB36F10711F00192FBCF0083E4E5F0E025
:14008800A0E6B0E010E000E00BBFEF35F10721F0C895319663
:14009C000D92F9CF0E94BA00FFCF8FEF8ABB22242BBA87BB8F
:1400B00028BA21BA82BB0895F8948BB7806C8BBF8AE085BFF3
:1400C40080EC8ABF789408954A935A930AC04427552702C08D
:1400D8004F5F5F4F84E690E084179507C8F7C80101978C01FA
:1400EC000030010781F75991499108952A923A920A931A931D
:140100008A932FB62A9208EE13E003C0829B01C00AC01801C0
:14011400015010402220C1F73320B1F781E080936A002990AA
:140128002FBE8991199109913990299018952A923A920A9324
:14013C001A938A932FB62A9208EE13E003C0839B01C00AC0EF
:140150001801015010402220C1F73320B1F782E080936A000D
:1401640029902FBE899119910991399029901895442797DF73
:140178009FDF34C08EEF88BB60916A0077276130E0E07E0772
:14018C0029F06230E0E07E07A1F026C080E690E0E42FFF27E9
:1401A000E7FDF095E80FF91F20802BBA08EE13E08DDF493080
:1401B40014F4439515C0442713C080E690E0E42FFF27E7FD51
:1401C800F095E80FF91F20802BBA08EE13E07ADF2224241648
:0C01DC0014F44A9501C049E0CBCF08950F
:00000001FF
