:040000000C942A0032
:14005400CFE5D4E0CDBFDEBFCE51D0400AEA08830024E0E66F
:14006800F0E010E0E036F10711F00192FBCF0083E4E5F0E03C
:14007C00A0E6B0E010E000E00BBFE435F10721F0C89531967A
:140090000D92F9CF0E947300FFCF22242ABA8FEF8BBB81BBE8
:1400A40082BB87BB88BB089583B7846683BF85B5846685BD1D
:1400B80008954A935A930AC041E050E002C04F5F5F4F84E62A
:1400CC0090E084179507C8F7C80101978C010030010781F71C
:1400E00059914991089544275527D7DFDFDF4CBF43BD3FC046
:1400F400C89906C044E650E04CBF43BD85E082BBC99906C0A2
:1401080049E150E04CBF43BD8AE082BBCA990EC04A3FE0E05D
:14011C005E071CF4475E5F4F02C04AEF50E04CBF43BD08ECDD
:1401300010E0C3DFCB990FC089E190E0841795071CF449513B
:14014400504002C049E150E04CBF43BD08EC10E0B2DFCC9916
:1401580002C089E082BBCD9902C086E082BBCE9904C04427CA
:0A016C0055274CBF43BDC0CF0895D6
:00000001FF
