:0C0000000C9430000C947C000C949B00CD
:0B0054003F065B4F666D7D077F6F006D
:14006000CFE5D4E0CDBFDEBFCE51D0400AEA08830024EBE658
:14007400F0E010E0EB36F10711F00192FBCF0083E4E5F0E025
:14008800A0E6B0E010E000E00BBFEF35F10721F0C895319663
:14009C000D92F9CF0E94BA00FFCF8FEF8ABB22242BBA87BB8F
:1400B00028BA21BA82BB0895F8948BB7806C8BBF8FE085BFEE
:1400C40080EC8ABF789408954A935A930AC04427552702C08D
:1400D8004F5F5F4F84E690E084179507C8F7C80101978C01FA
:1400EC000030010781F75991499108952A923A920A931A931D
:140100008A932FB62A9208EE13E003C0829901C00AC01801C2
:14011400015010402220C1F73320B1F781E080936A002990AA
:140128002FBE8991199109913990299018952A923A920A9324
:14013C001A938A932FB62A9208EE13E003C0839901C00AC0F1
:140150001801015010402220C1F73320B1F782E080936A000D
:1401640029902FBE899119910991399029901895442769E0A0
:1401780083E0A82E94DF9CDF4EC0E0906A00FF24C7018130C8
:14018C00E0E09E0729F08230E0E09E0709F141C001E01C2DA5
:1401A0000E941101202E209428BA80E690E0E42FFF27E7FDC0
:1401B400F095E80FF91F20802BBA08EE13E084DF493014F451
:1401C800439529C044278C2D833014F4C39423C0CC2421C078
:1401DC0001E01A2D0E941101202E209428BA80E690E0E62F64
:1401F000FF27E7FDF095E80FF91F20802BBA08EE13E064DFAC
:140204002224261614F46A9508C069E022242A1414F4AA9482
:1402180002C083E0A82EB1CF0895112319F0000F1A95FBCFF5
:02022C00089533
:00000001FF
