:040000000C942A0032
:14005400CFE5D4E0CDBFDEBFCE51D0400AEA08830024E0E66F
:14006800F0E010E0E036F10711F00192FBCF0083E4E5F0E03C
:14007C00A0E6B0E010E000E00BBFE435F10721F0C89531967A
:140090000D92F9CF0E946F00FFCF81E487B986B1806C86B90F
:1400A40086B1876086B9349BFECF04B115B13498379808959C
:1400B80022242ABA8FEF8BBB87BB88BB089522242CBE83B7BA
:1400CC00806483BF83B7846083BF83B7806283BF0895ECDFD4
:0C00E000F2DF02C0DADF5801FDCF089506
:00000001FF
