:040000000C942A0032
:040048000C947F0095
:14005400CFE5D4E0CDBFDEBFCE51D0400AEA08830024E0E66F
:14006800F0E010E0E036F10711F00192FBCF0083E4E5F0E03C
:14007C00A0E6B0E010E000E00BBFE435F10721F0C89531967A
:140090000D92F9CF0E948A00FFCF22242ABA8FEF8BBB81BBD1
:1400A40082BB08958FB5836A8FBD8EB583608EBD22243324E3
:1400B8003DBC2CBC0895F8948BB7806E8BBF80E484BF80EE9B
:1400CC008ABF789408954A935A930AC041E050E002C04F5FD9
:1400E0005F4F84E690E084179507C8F7C80101978C01003070
:1400F400010781F75991499108950A931A930FB70A93002743
:14010800112709910FBF19910991189544275527C0DFD1DF1C
:14011C00C5DF5BBD4ABD59BD48BD41C0C89908C044E650E06D
:140130005BBD4ABD59BD48BD85E082BBC99908C044E650E05B
:140144005BBD4ABD59BD48BD8AE082BBCA9910C0483EE3E04A
:140158005E071CF448535F4F02C048EE53E05BBD4ABD59BD75
:14016C0048BD08EC10E0AFDFCB9911C084E690E084179507C2
:140180001CF4485C504002C044E650E05BBD4ABD59BD48BDD1
:1401940008EC10E09CDFCC9902C089E082BBCD9902C086E09D
:0601A80082BBBECF0895EA
:00000001FF
