:080000000C9461000C9419033B
:040038000C94D8024A
:14008C0000007A440000C84200001041000020410000C642DE
:1400A00000C07944ACC527373F065B4F666D7D077F6F777CD9
:0D00B400395E7971000000000000000000BE
:1400C200CFEFD0E1CDBFDEBFC051D0400AEA08830024E9E104
:1400D600F1E011E0ED31F10711F00192FBCF0083E8EAF0E0BB
:1400EA00A0E0B1E010E000E00BBFE13CF10721F0C89531960D
:1400FE000D92F9CF0E947603FFCF000008950E94DB03580128
:140112004427552703C0F7DF4F5F5F4F4A155B05D0F30C94DB
:14012600E0030027112702C00F5F1F4F0437E4E01E07D0F3FE
:14013A0008950E94DB0358014427552703C0EFDF4F5F5F4F67
:14014E004A155B05D0F30C94E003A79A85B3807885BB8FE078
:1401620088BB0E949C0380E18093190180931A0180931B011A
:1401760080931C010895AA92A02EC0980A2D0E94A203C09A6E
:14018A00A990089580E091E0E0911901FF27E80FF91F008179
:14019E00EEDFBC9AC49A0CE310E00E948600BC9AC49880E0B3
:1401B20091E0E0911A01FF27E80FF91F0081DDDF80911101A7
:1401C600813071F480911201813051F480E091E0E0911A0198
:1401DA00FF27E80FF91F00810068CBDFBD9AC59A0CE310E0B4
:1401EE000E948600BD9AC59880E091E0E0911B01FF27E80FA6
:14020200F91F0081BADF80911101813071F4809112018230A7
:1402160051F480E091E0E0911B01FF27E80FF91F0081006813
:14022A00A8DFBE9AC69A0CE310E00E948600BE9AC69880E064
:14023E0091E0E0911C01FF27E80FF91F008197DF809111015E
:14025200813071F480911201833051F480E091E0E0911C0107
:14026600FF27E80FF91F0081006885DFBF9AC79A0CE310E069
:14027A000E948600BF9AC7980895AA92BA9258018FE097E22A
:14028E008A159B0530F40FEF72DF88B3806F88BB7FC087EE89
:1402A20093E08A159B0530F528EE33E085010E94AD030093DD
:1402B6001C0128EE33E085010E94AB0324E630E00E94AD03AC
:1402CA0000931B0124E630E085010E94AB032AE030E00E94C5
:1402DE00AD0300931A012AE030E085010E94AB030093190111
:1402F2004DDF54C083E690E08A159B0510F580E180931C010A
:1403060028EE33E085010E94AB0324E630E00E94AD030093E5
:14031A001B0124E630E085010E94AB032AE030E00E94AD0357
:14032E0000931A012AE030E085010E94AB030093190126DF6B
:140342002DC089E090E08A159B05C8F480E180931C01809342
:140356001B0124E630E085010E94AB032AE030E00E94AD031B
:14036A0000931A012AE030E085010E94AB030093190108DF4D
:14037E000FC080E180931C0180931B0180931A012AE030E094
:1403920085010E94AB0300931901F8DEB990A99008950E943D
:1403A600A603AA92BA922A803B804C805D8004EA10E00E9484
:1403BA00C7033A932A931A930A93810192010E9458040A83F1
:1403CE001B832C833D8381E080931101CE0102961C0100EA1A
:1403E20010E00E94C7033A922A920E948B0534F40FEFC3DE2A
:1403F60088B3806F88BBB6C0CE0102961C010CE910E00E9405
:14040A00C7033A922A920E948B05ACF508E910E00E94C7036C
:14041E00CE0102969A938A930E9474050E946304580181E03B
:140432008093120128EE33E00E94AD0300931C0128EE33E03C
:1404460085010E94AB0324E630E00E94AD0300931B0124E6A7
:14045A0030E085010E94AB032AE030E00E94AD0300931A018E
:14046E002AE030E085010E94AB030093190188DE75C0CE0173
:1404820002961C0104E910E00E94C7033A922A920E948B05AE
:14049600ACF500E910E00E94C703CE0102969A938A930E9419
:1404AA0074050E946304580182E08093120128EE33E00E9410
:1404BE00AD0300931C0128EE33E085010E94AB0324E630E0B1
:1404D2000E94AD0300931B0124E630E085010E94AB032AE01B
:1404E60030E00E94AD0300931A012AE030E085010E94AB0302
:1404FA000093190147DE34C00CE810E00E94C703CE01029671
:14050E009A938A930E9474050E946304580183E08093120189
:1405220028EE33E00E94AD0300931C0128EE33E085010E9449
:14053600AB0324E630E00E94AD0300931B0124E630E0850148
:14054A000E94AB032AE030E00E94AD0300931A012AE030E019
:14055E0085010E94AB030093190112DE222420921101B990C3
:14057200A9902496089522242EBC8FE88DBD81E88CBD80E7DB
:140586008BBD8FE78ABD80E789BD8FE788BD80E78093790001
:14059A008FE78093780080E787BD8FE786BD2FBC84E08EBD4E
:1405AE0008952A923A928A939A93AA93EA932FB62A928FE8F8
:1405C2008DBD81E88CBD8091150190911601019690931601F9
:1405D6008093150180911501909116018C33E0E09E07D8F09D
:1405EA00222433243092160120921501809113019091140164
:1405FE000196909314018093130180911301909114018C33D9
:14061200E0E09E0720F0309214012092130129902FBEE991A2
:14062600A991999189913990299018958A939A938FB78A9366
:14063A00809115019091160101979093160180931501899138
:14064E008FBF999189911895F8948FDF8091170190911801FC
:140662008130E0E09E0719F4222427BE02C084E087BF7894BE
:140676000895209015013090160120FC04C081E080931101D0
:14068A0003C022242092110182E0809312012AE030E000915C
:14069E001301109114010E94AD0300931C012AE030E00091D1
:1406B2001301109114010E94AB0300931B012AE030E00091C0
:1406C6001501109116010E94AD0300931A012AE030E00091A7
:1406DA001501109116010E94AB03009319010C94C700B4DF47
:1406EE000E94AC0020C0C1DFF894809117019091180181308A
:14070200E0E09E0719F4222427BE02C084E087BF78948099B5
:1407160006C081E090E09093180180931701819906C02224AB
:14072A0033243092180120921701DFCF089587B3876087BB11
:14073E0083E58DB908950FB9779BFECF08953A932A931A93E1
:140752000A930895689401C0E894EA92FA928A93EE24FF24C6
:1407660080E1000F111FEE1CFF1CE216F30618F0E21AF30AC8
:14077A0003958A95A1F716F40E2D1F2D8991F990E9900895D2
:14078E00EA93FA930A92E02FF12FD895002D3196D895102D77
:1407A2003196D895202D3196D895302D0990F991E9910895F7
:1407B6005A934A93BA92AA920895A990B9904991599108955D
:1407CA0000951095209530950F5F1F4F2F4F3F4F08956894E6
:1407DE0001C0E8940E9403050E94950409F448C0E62CD52CCD
:1407F200C42CB32EA22E912E802E00811181228133810E94D9
:14080600950409F444C0842D952D8C199D09B9F072F4909552
:14081A00809501964C2C5D2C8831B8F53595279517950795E9
:14082E000197D1F708C0883118F5B594A79497948794019766
:14084200D1F766242EF0080D191D2A1D3B1D09C0801A910A4A
:14085600A20AB30A082D192D2A2D3B2D332322F40E94E503F5
:14086A0080E8682E0E94BE0402C00E94F3040E941205089567
:14087E000081118122813381C6F70E949D04A9F380E8382799
:14089200F2CF082D192D2A2D3B2D4C2C5D2C6E2C33233AF735
:1408A6000E94E50380E8682EE2CFFA93EA93EC2FFD2F3296EC
:1408BA000E94F003E991F991249608954A925A926A928A9359
:1408CE000E94A50411F15520E2F08FE14816C0F487E148163A
:1408E200D1F058F4419489EE481A05C03595279517950795B4
:1408F6004A94D1F70EC087E1481A000F111F221F331F4A9400
:14090A00D1F705C03FE7232F132F032F04C0662011F00E9473
:14091E00E503899169905990499008950FD029F0662011F0EC
:140932000E94E50398940895002329F4112319F4222309F49B
:1409460033230895F7DF99F08A93632E80E86822220F331F28
:14095A00432E8FE7481A55248827580A269530E8232B33273B
:14096E008991989408954424552466240895DEDF09F4089533
:14098200AA93BA93D2019A938A938EE790E0332349F036957B
:14099600279517950795A817B907CCF41196F5CF8095909565
:1409AA0001962223BAF0000F111F221FA817B90714F0119708
:1409BE00F6CF0027112722273327899199912D01B991A99168
:1409D200089533270FEF102F2FE7322F899199912D0102C032
:1409E600AA93BA93A7DF49F0D201A158BF4F2D01342D220F1A
:1409FA00369527953629B991A99108954A925A926A927A9212
:140A0E008A929A92AA92BA92CA92DA92EA92FA928A939A93EA
:140A2200089599918991F990E990D990C990B990A990999070
:140A36008990799069905990499008950E940305AA93BA93FE
:140A4A000E94A504E1F1E62CD52CC42CB32EA22E912E802E5A
:140A5E0000811181228133810E94A50471F16E244C0C5D1C0A
:140A720080E84816530664F581E848168FEF58066CF1A29EB8
:140A8600B12DA02D919E912D802DA09E800D911DA31FB31F0A
:140A9A00829E800D911DA31FB31F929E900DA11DB31FA19EBD
:140AAE00900DA11DB31F2B2F1A2F092F880F001F111F221F05
:140AC200331F0E94BE04B991A9910E94120508950FEF102F53
:140AD6002FE78FE7482EF5CF0027102F202F302FF0CFFA93E6
:140AEA00EA93EA81FB810E942105E991F991229608950E94D1
:140AFE00EE0333233AF00E949D0411F001E0089500270895ED
:140B12000FEF0895FA93EA93EA81FB810E947E05E991F9911A
:060B260022960023089551
:00000001FF
