:140000000C9446000C9488000C94FF000C9478010C94F40191
:14008C00CFEFD0E1CDBFDEBFCE51D0400AEA08830024E0E036
:1400A000F1E011E0E030F10711F00192FBCF0083ECE8F0E0FD
:1400B400A0E0B1E010E000E00BBFEC38F10721F0C89531963C
:1400C8000D92F9CF0E945202FFCFF8948FE089BF8FEF809325
:1400DC006A00789408950E94640266277727442755270BC018
:1400F0006627772702C06F5F7F4F6437E4E07E07D0F34F5F1E
:140104005F4F4017510790F30C9469020A921A922A923A922C
:140118004A925A926A927A928A929A920A931A932A933A93E7
:14012C008A939A93AA93BA93EA93FA930FB60A924A935A93B6
:1401400047E050E042C0C5DF01E010E09A010E946E02180117
:14015400209430942BBA425050408091650080618093650049
:140168000CE211E0BADF809165008F7E809365000CE211E031
:14017C00B2DF809165008061809365000CE211E0AADF809196
:1401900065008F7E809365000CE211E0A2DF809165008061BA
:1401A400809365000CE211E09ADF809165008F7E809365007C
:1401B8000CE211E092DF4F3FEFEF5E0711F447E050E0BDCF2A
:1401CC005991499109900FBEF991E991B991A9919991899129
:1401E00039912991199109919990899079906990599049903D
:1401F400399029901990099018950A921A922A923A924A92DA
:140208005A926A927A928A929A920A931A932A933A938A93B5
:14021C009A93AA93BA93EA93FA930FB60A924A935A93442777
:14023000552744C0442755273CC04BDF01E010E09A010E941F
:140244006E021801209430942BBA80916500806180936500F1
:140258000CE211E042DF809165008F7E809365000CE211E0B8
:14026C003ADF809165008061809365000CE211E032DF809195
:1402800065008F7E809365000CE211E02ADF80916500806141
:14029400809365000CE211E022DF809165008F7E8093650003
:1402A8000CE211E01ADF4E5F5F4F4830E0E05E0708F4BFCFE8
:1402BC00BBCF5991499109900FBEF991E991B991A9919991C8
:1402D00089913991299119910991999089907990699059900B
:1402E4004990399029901990099018950A921A922A923A92EC
:1402F8004A925A926A927A928A929A920A931A932A933A9306
:14030C008A939A93AA93BA93EA93FA930FB60A920E94640296
:14032000442755276627772745C0442755273DC0D0DE662793
:14033400772713C001E010E09A010E946E0218012094309435
:140348002BBA08EC10E0C9DE8FEF8BBB08EC10E0C4DE6F5F19
:14035C007F4F6630E0E07E0748F380916500806180936500DA
:140370000CE211E0B6DE809165008F7E809365000CE211E02C
:14038400AEDE809165008061809365000CE211E0A6DE809196
:1403980065008F7E809365000CE211E09EDE4F5F5F4F483038
:1403AC00E0E05E0708F4BECFBACF0E94690209900FBEF99109
:1403C000E991B991A9919991899139912991199109919990F6
:1403D4008990799069905990499039902990199009901895C7
:1403E8000A921A922A923A924A925A926A927A928A929A9219
:1403FC000A931A932A933A938A939A93AA93BA93EA93FA933B
:140410000FB60A928FEF8BBB809165008061809365000CE2F6
:1404240011E05DDE809165008F7E809365000CE211E055DE8B
:14043800809165008061809365000CE211E04DDE8091650061
:14044C008F7E809365000CE211E045DEFFCF09900FBEF99157
:14046000E991B991A991999189913991299119910991999055
:14047400899079906990599049903990299019900990189526
:140488008FEF8ABB8BBB809364008093650082B983B980EF82
:14049C0081BB8FEF82BB089516DEF0DF809165008F7E80935F
:1404B000650008C0D89A0CE211E013DED8980CE211E00FDE8D
:1404C400F7CF08957A936A935A934A93089549915991699192
:1204D80079910895222321F0000F111F2A95FACF0895B1
:00000001FF
