:0C0000000C944F000C944A020C9469020E
:040038000C941B0207
:11008C0054696D652069733A200000000020003A0024
:14009E00CFEFD0E1CDBFDEBFCE51D0400AEA08830024E1E122
:1400B200F1E011E0E631F10711F00192FBCF0083ECE8F0E0E4
:1400C600A0E0B1E010E000E00BBFED39F10721F0C895319628
:1400DA000D92F9CF0E941603FFCF02C00150104081E090E0EE
:1400EE0080179107C8F308954A9304EF11E0F3DFA89804EFB1
:1401020011E0EFDFA99A04EF11E0EBDF1AC0AA9A04EF11E037
:14011600E6DF22242ABA8FEF8BBB04EF11E0DFDF49B34078CC
:14012A0004EF11E0DADF8FEF8ABB8BBB04EF11E0D4DFAA9842
:14013E0004EF11E0D0DF442321F749910895AA92A02ED2DF69
:1401520004EF11E0C6DFA89804EF11E0C2DFA99804EF11E026
:14016600BEDFAA9A04EF11E0BADFABBA04EF11E0B6DFAA9807
:14017A0004EF11E0B2DFA990089508E3E2DF08EE13E0ABDF07
:14018E0001E0DDDF00E117E2A6DF08EE13E0A3DF08EE13E00D
:1401A200A0DF08EE13E09DDF08EE13E09ADF08EE13E097DFA4
:1401B60008EE13E094DF02E0C6DF08EE13E08FDF06E0C1DF75
:1401CA0008EE13E08ADF0CE0BCDF08EE13E085DF08E3B7DF7A
:1401DE0008EE13E080CFAA92A02E86DF04EF11E07ADFA89AE7
:1401F20004EF11E076DFA99804EF11E072DFAA9A04EF11E022
:140206006EDFABBA04EF11E06ADFAA9804EF11E066DFA99061
:14021A000895AA926BDF04EF11E05FDFA89A04EF11E05BDF2B
:14022E00A99A04EF11E057DFAA9A04EF11E053DF22242ABADB
:1402420004EF11E04EDFA9B204EF11E04ADF8FEF8ABB04EF79
:1402560011E045DFAA9804EF11E041DF0A2DA99008950E948A
:14026A007803B901580100E46CDFA89AA998A5010AC0FB01D4
:14027E00A080B180AA9AABBAAA986E5F7F4F41505040403004
:14029200450799F70C947F030E947803A80100E854DFA89A37
:1402A600A99802E310E01BDF66270BC0FA01A080ABBAAA9A18
:1402BA0002E310E012DFAA984F5F5F4F6395603198F300ECCC
:1402CE003EDFA89AA99802E310E005DF66270BC0FA01A08050
:1402E200ABBAAA9A02E310E0FCDEAA984F5F5F4F6395603189
:1402F60098F30C947F030E947803622F402FAE80413019F47E
:14030A00462F405802C0462F4054042F1ADFA89A04EF11E0B5
:14031E00E2DEA99804EF11E0DEDEABBA04EF11E0DADEAA9AE5
:1403320004EF11E0D6DEAA9804EF11E0D2DE0C947F030E9485
:140346008603C22E602FA884B9844A855B85613019F46C2D4C
:14035A00605802C06C2D6054062FF3DEA89A04EF11E0BBDE03
:14036E00A99804EF11E0B7DE14C0FA01C08004EF11E0B1DE3F
:14038200CBBA04EF11E0ADDEAA9A04EF11E0A9DEAA9804EF8F
:1403960011E0A5DE4F5F5F4FAA94AA2051F70C948F030E945F
:1403AA006E0366277727442755270BC06627772702C06F5F36
:1403BE007F4F6437E4E07E07D0F34F5F5F4F4017510790F328
:1403D2000C9473030E946903590168018091650080618093C6
:1403E60065008601DEDF809165008F7E809365008501D7DF23
:1403FA000C945E0322242EBC8FE88DBD81E88CBD80E78BBD9C
:14040E008FE78ABD80E789BD8FE788BD80E7809379008FE74C
:140422008093780080E787BD8FE786BD2FBC84E08EBD0895A0
:140436002A928A939A932FB62A928FE88DBD81E88CBD809187
:14044A000B018F5F80930B018C3360F0222420920B01809161
:14045E000A018F5F80930A018C3310F020920A0180911501D0
:140472008F5F8093150187E020901501821518F42224209297
:14048600150129902FBE99918991299018952A923A920A93D7
:14049A001A938A932FB62A9208EE13E003C0829901C00AC091
:1404AE001801015010402220C1F73320B1F781E080930C010A
:1404C20029902FBE8991199109913990299018952A923A926B
:1404D6000A931A938A932FB62A9208EE13E003C0839901C081
:1404EA000AC01801015010402220C1F73320B1F782E0809310
:1404FE000C0129902FBE8991199109913990299018958FEF2C
:140512008ABB22242BBA84BB85BB21BA82BB80916400806178
:1405260080936400809165008F7E80936500089524971AE0FD
:14053A0000910A010E944803802F805D809314011AE00091E5
:14054E000A010E944603802F805D809313011AE000910B0159
:140562000E944803802F805D809312011AE000910B010E94AD
:140576004603802F805D8093110180E091E09B838A8388E013
:14058A0090E099838883222701E0D7DE20901401288229E06F
:14059E0001E0ADDE2090130128822AE001E0A7DE12E000917C
:1405B2000B010E944603002361F48FE091E09B838A8381E05A
:1405C60090E0998388832BE001E0B9DE0BC08DE091E09B8340
:1405DA008A8381E090E0998388832BE001E0ADDE20901201CE
:1405EE0028822CE001E083DE2090110128822DE001E07DDE4C
:1406020024960895F894FADE20900C01222019F484E087BF73
:1406160002C0222427BE7894129A1A9A8FEF8ABB22242BBA89
:14062A00089571DFAADDEADF2AC080DF809904C081E08093E5
:14063E000C010AC0819908C0222420920C0120E931E008EEDA
:1406520013E0C0DE82990EC024E630E00CE211E0B9DE809179
:140666000C01813029F480910B018F5F80930B0120900C01BE
:14067A00222019F484E087BF02C0222427BED5CF0895689449
:14068E0001C0E8942A93FA92EA92FF24EE2420E1000FFF1CF6
:1406A200EE1CE11610F0E11A03952A95B9F70EF40E2DE9908B
:1406B600F99029910895A990B990C990D99008957A936A9365
:1406CA005A934A93FA92EA92DA92CA92BA92AA9208957A9350
:1406DE006A935A934A930895499159916991799108957A9332
:1406F2006A935A934A93BA92AA920895A990B99049915991C2
:140706006991799108957A936A935A934A93DA92CA92BA9256
:14071A00AA920895A990B990C990D9904991599169917991E6
:02072E0008952C
:00000001FF
