:040000000C94340028
:14005400C0F9A4B0999282F880903F065B4F666D7D077F6FA2
:14006800CFE5D4E0CDBFDEBFCE51D0400AEA08830024E4E756
:14007C00F0E010E0E437F10711F00192FBCF0083E4E5F0E023
:14009000A0E6B0E010E000E00BBFE836F10721F0C895319661
:1400A4000D92F9CF0E947400FFCF8FEF84BB85BB81BB22247E
:1400B80022BA2ABA8BBB08950E94A400442755270AC066270D
:1400CC00772702C06F5F7F4F60306707D9F74F5F5F4F4017A3
:1400E000510798F30C94A9004427E1DF2BC0CE9913C0AA24C2
:1400F4000EC080E690E0EA2DFF27E7FDF095E80FF91F2080FF
:1401080025BA00E61AEED8DFA39489E08A157CF7CF9912C073
:14011C0049E00EC080E690E0E42FFF27E7FDF095E80FF91F51
:14013000208025BA00E61AEEC3DF4A95403084F78FEF85BB24
:14014400D4CF08957A936A935A934A93089549915991699138
:0401580079910895FC
:00000001FF
