:040000000C94350027
:14005400C0F9A4B0999282F880903F065B4F666D7D077F6FA2
:010068008017
:14006A00CFE5D4E0CDBFDEBFCE51D0400AEA08830024E5E753
:14007E00F0E010E0E537F10711F00192FBCF0083E4E5F0E020
:14009200A0E6B0E010E000E00BBFE936F10721F0C89531965E
:1400A6000D92F9CF0E947500FFCF8FEF84BB85BB81BB22247B
:1400BA0022BA2ABA8BBB08950E943601442755270AC0662778
:1400CE00772702C06F5F7F4F60306707D9F74F5F5F4F4017A1
:1400E200510798F30C943B014427E1DFBCC0CE9922C049E032
:1400F6001EC069E016C08AE690E0E42FFF27E7FDF095E80F80
:14010A00F91F208025BAE62FFF27E7FDF095E80FF91F2080F7
:14011E0022BA00E21EE4CEDF6A95603044F700E315E7C8DF10
:140132004A95403004F7CF9924C044271FC0662716C08AE606
:1401460090E0E42FFF27E7FDF095E80FF91F208025BAE62FF0
:14015A00FF27E7FDF095E80FF91F208022BA00E21EE4AADF0A
:14016E00639589E086173CF700E315E7A3DF439589E084170F
:14018200F4F6CD9924C044271FC061E016C08AE690E0E42FE1
:14019600FF27E7FDF095E80FF91F208025BAE62FFF27E7FD19
:1401AA00F095E80FF91F208022BA00E21EE484DF6E5F89E0B4
:1401BE0086173CF700E315E77DDF439589E08417F4F6CC99F7
:1401D20024C044271FC0662716C08AE690E0E42FFF27E7FD8B
:1401E600F095E80FF91F208025BAE62FFF27E7FDF095E80F57
:1401FA00F91F208022BA00E21EE45EDF6E5F89E086173CF736
:14020E0000E315E757DF439589E08417F4F6CB9921C020900C
:14022200740025BA00E315E74BDF222425BA2090740022BA47
:1402360000E315E743DF222422BA2090740025BA00E315E7AF
:14024A003BDF222425BA00E315E736DF2090740022BA00E38A
:14025E0015E730DF222425BA22BA43CF08957A936A935A93DA
:0E0272004A930895499159916991799108959F
:00000001FF
