:040000000C942F002D
:140054003F065B4F666D7D077F6FCFE5D4E0CDBFDEBFCE51B4
:14006800D0400AEA08830024EAE6F0E010E0EA36F10711F028
:14007C000192FBCF0083E4E5F0E0A0E6B0E010E000E00BBF47
:14009000EE35F10721F0C89531960D92F9CF0E94A700FFCF8E
:1400A4008FEF8ABB22242BBA87BB88BB21BA88BB08954A933D
:1400B8005A930AC041E050E002C04F5F5F4F84E690E0841799
:1400CC009507C8F7C80101978C010030010781F75991499163
:1400E00008950E940F01580144272CC0662727C001E0162F73
:1400F4000E941D01202E209428BA623071F4E62FFF27EA0D2B
:14010800FB1DE081FF2780E690E0E80FF91F808180688BBB30
:14011C000CC0E62FFF27EA0DFB1DE081FF2780E690E0E80F65
:14013000F91F20802BBA05E010E0BDDF63956430B8F243959F
:14014400483208F4D1CF0C941601249744276627AA24A6DFD4
:1401580047C0829902C083E0A82E44273EC0662738C080996F
:14016C0002C06627442781991BC019C0829901C017C01AE04A
:14018000062F0E94F70008831AE0062F0E94F90009831AE0C2
:14019400042F0E94F7000A831AE0042F0E94F9000B838E0119
:1401A8009CDFE6CF1AE0062F0E94F70008831AE0062F0E94EF
:1401BC00F90009831AE0042F0E94F7000A831AE0042F0E9488
:1401D000F9000B838E0185DF63956C3308F4C5CF43954C3323
:1401E40008F4BFCFB8CF24960895689401C0E8942A93FA921D
:1401F800EA92FF24EE2420E1000FFF1CEE1CE11610F0E11A1B
:14020C0003952A95B9F70EF40E2DE990F990299108957A9334
:140220006A935A934A93BA92AA920895A990B9904991599198
:12023400699179910895112319F0000F1A95FBCF0895B5
:00000001FF
