:040000000C9431002B
:040018000C946F00D5
:140054003F065B4F666D7D077F6F00000000CFE5D4E0CDBF70
:14006800DEBFCE51D0400AEA08830024EEE6F0E010E0E23768
:14007C00F10711F00192FBCF0083E4E5F0E0A0E6B0E010E0F8
:1400900000E00BBFE236F10721F0C89531960D92F9CF0E9464
:1400A400F800FFCF8FEF8ABB22242BBA87BB28BA0895F89447
:1400B800222433243DBC2CBC8EB588608EBD8EB584608EBDCE
:1400CC0081E792E09BBD8ABD89B7806189BF789408952A92D9
:1400E0003A928A939A93AA93EA932FB62A9280916A009091FF
:1400F4006B00019690936B0080936A008436E0E09E07F9F4DF
:1401080080916D008B3380F0222420926D0080916C008B3397
:14011C0018F020926C000BC080916C008F5F80936C0005C02F
:1401300080916D008F5F80936D002224332430926B00209253
:140144006A0029902FBEE991A9919991899139902990189570
:140158004A935A930AC041E050E002C04F5F5F4F84E690E0B6
:14016C0084179507C8F7C80101978C010030010781F7599101
:14018000499108950E943B01580144272CC0662727C001E011
:14019400162F0E944901202E209428BA623071F4E62FFF2710
:1401A800EA0DFB1DE081FF2780E690E0E80FF91F80818068DF
:1401BC008BBB0CC0E62FFF27EA0DFB1DE081FF2780E690E076
:1401D000E80FF91F20802BBA05E010E0BDDF63956430B8F2E0
:1401E4004395483208F4D1CF0C9442015BDF61DF26C08099BD
:1401F80005C0222420926D0020926C001AE000916D000E9411
:14020C00230100936E001AE000916D000E94250100936F00F7
:140220001AE000916C000E942301009370001AE000916C0013
:140234000E942501009371000EE610E0A1DFD9CF0895689445
:1402480001C0E8942A93FA92EA92FF24EE2420E1000FFF1C40
:14025C00EE1CE11610F0E11A03952A95B9F70EF40E2DE990D5
:14027000F990299108957A936A935A934A93BA92AA920895A1
:14028400A990B99049915991699179910895112319F0000F33
:060298001A95FBCF08954A
:00000001FF
