:0C0000000C9473000C94B0000C94CF0022
:0100E400001B
:1400E600CFEFD1E2CDBFDEBFCE51D0400AEA08830024E1E0D9
:1400FA00F2E012E0E130F10711F00192FBCF0083E4EEF0E0A2
:14010E00A0E0B2E010E000E00BBFE53EF10721F0C8953196E1
:140122000D92F9CF0E94F800FFCF8FEF8ABB22242BBA87BBCA
:1401360028BA21BA82BB0895F8948BB7806C8BBF8AE085BF6C
:14014A0080EC8ABF78940895C80101978C0100300107D1F755
:14015E0008952A923A920A931A938A932FB62A9208EE13E077
:1401720003C0829B01C00AC01801015010402220C1F7332007
:14018600B1F781E08093000229902FBE89911991099139907A
:14019A00299018952A923A920A931A938A932FB62A9208EE65
:1401AE0013E003C0839B01C00AC01801015010402220C1F72A
:1401C2003320B1F782E08093000229902FBE899119910991B3
:1401D60039902990189581E08BBB00EA16E8B6DF22242BBA97
:1401EA0000EA16E8B1CF44279CDFA4DF29C0609100027727B6
:1401FE006130E0E07E0729F06230E0E07E0779F01CC001E001
:14021200142F0E94270108BB00E117E299DF473014F443955F
:1402260010C044270EC001E0142F0E94270108BB00E117E230
:14023A008BDF2224241614F44A9501C047E0C9DFD6CF08950D
:0C024E00112319F0000F1A95FBCF089542
:00000001FF
