:040000000C94090152
:14008C00B80500202020202020202020303030303020202033
:1400A0002020202020202020202020202020209040404040DC
:1400B40040404040404040404040400C0C0C0C0C0C0C0C0C0C
:1400C8000C404040404040400909090909090101010101011C
:1400DC00010101010101010101010101010140404040404082
:1400F0000A0A0A0A0A0A0202020202020202020202020202A4
:140104000202020202024040404020000000000000000000BB
:140118000000000000000000000000000000000000000000D3
:14012C000000000000000000000000000000000000000000BF
:140140000000000000000000000000000000000000000000AB
:14015400000000000000000000000000000000000000000097
:14016800000000000000000000000000000000000000000083
:14017C00000000000000000000000000000000000000002847
:140190006E756C6C20707472207061737365642900696E7416
:1401A40065676572206F6E6C79207072696E74662C207365EB
:1401B8006C6563742050726F6A6563742D3E4F7074696F6EB0
:1401CC00732D3E5461726765742C224650207072696E746643
:1401E0002220746F207072696E7420666C6F6174696E672005
:1401F400706F696E74206E756D626572733E004E756D62657C
:09020800722069733A00256400BC
:14021200CFEFD0E1CDBFDEBFCE51D0400AEA08830024EEE0A0
:14022600F1E011E0EB33F10711F00192FBCF0083E3E0F2E076
:14023A00A0E0B1E012E000E00BBFE131F10721F0C8953196C4
:14024E000D92F9CF0E94DF02FFCF02C00150104081E090E0B0
:1402620080179107C8F308954A9304EF11E0F3DFA89804EF3B
:1402760011E0EFDFA99A04EF11E0EBDF1AC0AA9A04EF11E0C2
:14028A00E6DF22242ABA8FEF8BBB04EF11E0DFDF49B3407857
:14029E0004EF11E0DADF8FEF8ABB8BBB04EF11E0D4DFAA98CD
:1402B20004EF11E0D0DF442321F749910895AA92A02ED2DFF4
:1402C60004EF11E0C6DFA89804EF11E0C2DFA99804EF11E0B1
:1402DA00BEDFAA9A04EF11E0BADFABBA04EF11E0B6DFAA9892
:1402EE0004EF11E0B2DFA990089508E3E2DF08EE13E0ABDF92
:1403020001E0DDDF00E117E2A6DF08EE13E0A3DF08EE13E097
:14031600A0DF08EE13E09DDF08EE13E09ADF08EE13E097DF2E
:14032A0008EE13E094DF02E0C6DF08EE13E08FDF06E0C1DFFF
:14033E0008EE13E08ADF0CE0BCDF08EE13E085DF08E3B7DF04
:1403520008EE13E080CFAA92A02E86DF04EF11E07ADFA89A71
:1403660004EF11E076DFA99804EF11E072DFAA9A04EF11E0AC
:14037A006EDFABBA04EF11E06ADFAA9804EF11E066DFA990EC
:14038E000895AA926BDF04EF11E05FDFA89A04EF11E05BDFB6
:1403A200A99A04EF11E057DFAA9A04EF11E053DF22242ABA66
:1403B60004EF11E04EDFA9B204EF11E04ADF8FEF8ABB04EF04
:1403CA0011E045DFAA9804EF11E041DF0A2DA99008950E9415
:1403DE007A03B901580100E46CDFA89AA998A5010AC0FB015D
:1403F200A080B180AA9AABBAAA986E5F7F4F4150504040308F
:14040600450799F70C9481030E947A03A80100E854DFA89ABD
:14041A00A99802E310E01BDF66270BC0FA01A080ABBAAA9AA2
:14042E0002E310E012DFAA984F5F5F4F6395603198F300EC56
:140442003EDFA89AA99802E310E005DF66270BC0FA01A080DA
:14045600ABBAAA9A02E310E0FCDEAA984F5F5F4F6395603113
:14046A0098F30C9481030E947A03622F402FAE80413019F404
:14047E00462F405802C0462F4054042F1ADFA89A04EF11E040
:14049200E2DEA99804EF11E0DEDEABBA04EF11E0DADEAA9A70
:1404A60004EF11E0D6DEAA9804EF11E0D2DE0C9481030E940E
:1404BA008803C22E602FA884B9844A855B85613019F46C2DD5
:1404CE00605802C06C2D6054062FF3DEA89A04EF11E0BBDE8E
:1404E200A99804EF11E0B7DE14C0FA01C08004EF11E0B1DECA
:1404F600CBBA04EF11E0ADDEAA9A04EF11E0A9DEAA9804EF1A
:14050A0011E0A5DE4F5F5F4FAA94AA2051F70C9491038FEF0B
:14051E008ABB8BBB84BB85BB222421BA82BB08950E947003AF
:140532004427552707C061E001C063956623E9F74F5F5F4F48
:1405460040175107B0F30C947503AA92BA9258012497B98260
:14055A00A8822BE031E00EE111E00E94C20520E031E00EE0FF
:14056E0011E00E9424032EE131E00EE011E00E9417030EE016
:1405820011E00E942D03A02E8EE091E09B838A832A2C33241D
:1405960039822882222701E08CDF8EE091E09B838A832A2CF7
:1405AA00332439822882222702E081DF2496B990A99008951D
:1405BE004427AA246627ABDF98DE00271127C1DF2DC080995E
:1405D20013C0613031F042E000ED17E0A7DF61E003C0483088
:1405E6000CF4440F042F112707FD1095AEDF00ED17E09ADFB0
:1405FA00819916C0623031F041E000ED17E092DF62E006C0CC
:14060E00433624F44A0D242E2A18A22C042F112707FD10957A
:1406220096DF00ED17E082DFD2CF0895A02FB12FE22FF32FEA
:140636002D912223E9F7119721912D932223E1F70895A02F2A
:14064A00B12FE22FF32F01900D920020E1F70895E02FF12F95
:14065E00AA27BB270190002011F01196FBCF0A2F1B2F089592
:140672003A932A931A930A930895689401C0E894EA92FA92C2
:140686008A93EE24FF2480E1000F111FEE1CFF1CE216F30658
:14069A0018F0E21AF30A03958A95A1F716F40E2D1F2D899151
:1406AE00F990E9900895A990B990C990D990E990F990499179
:1406C20059916991799108957A936A935A934A93FA92EA92BD
:1406D600DA92CA92BA92AA9208957A936A935A934A930895B2
:1406EA00499159916991799108957A936A935A934A93BA9277
:1406FE00AA920895A990B990499159916991799108957A931B
:140712006A935A934A93DA92CA92BA92AA920895A990B9909D
:14072600C990D990499159916991799108950A92D8950A92F3
:14073A003196D895F02DE991099009940E9439030E946503C2
:14074E00A901EE84FF845A01AA2051F4BB2041F480E3EA85AC
:14076200FB858083222421828F0153C04030E0E05E076CF47F
:14077600C7018A30E0E09E0741F4CC24C394C501809590950C
:14078A0001965C0101C0CC246A857B85970185010E943E03C6
:14079E00A80189E090E08017910734F0CA01C096FB01819341
:1407B200BF0106C0CA01895A9F4FFB018193BF019701850123
:1407C6000E9440035801AA2019F7BB2009F7CC2021F08DE2C0
:1407DA00FB018193BF012B01615070402224F2012082AA84A5
:1407EE00BB840CC0F501C080FB012080F50121925F011B01F5
:1408020061507040F101C082A616B70688F30A851B850E9488
:140816005A03249608950E94650369015801EA84FB84A501BA
:14082A00970186010E943E03B80189E090E08017910734F0D3
:14083E00CB01C096FA018193AF0106C0CB01895A9F4FFA0167
:140852008193AF01970186010E9440036801CC2019F7DD2068
:1408660009F72A01415050402224F201208265010CC0F6012E
:14087A00E080FA012080F60121926F011A0141505040F10127
:14088E00E082C416D50688F385010C945A038FE890E0F80161
:1408A200E80FF91F069111270270107008954A935A93A80162
:1408B6008A010E944E040030010731F08A01015610400F5BBA
:1408CA001F4F01C08A015991499108950E9439030E94650317
:1408DE0024976A897B894427552737C1E889F98980818532CA
:1408F20041F00081EE85FF850E949A034F5F5F4F25C180E266
:1409060091E05C0180E2C82E888999890196998B888BFC01B9
:14091A00E080FF24C7018835E0E09E0709F465C088E58E152A
:14092E009F0594F0C7018534E0E09E0709F404C18534E0E06C
:140942009E070CF43DC0C7018335E0E09E0709F4AFC036C0B8
:14095600C7018336E0E09E0709F499C08436E0E09E0709F435
:14096A0035C08536E0E09E0709F4E8C08636E0E09E0709F4A1
:14097E00E3C08936E0E09E0739F18F36E0E09E0709F431C05C
:140992008037E0E09E0709F42CC08336E0E09E077CF0C701FA
:1409A6008337E0E09E0709F4A2C08537E0E09E07F1F08837FE
:1409BA00E0E09E07D1F000C0E889F9890081EE85FF850E9436
:1409CE009A034F5F5F4FBCC06E5F7F4FFB013297E080F1806F
:1409E2008AE090E099838883970185010E94A3034CC06E5FC1
:1409F6007F4FFB013297E080F180E889F9898081853749F49C
:140A0A008AE090E099838883970185010E940E0438C0E8899C
:140A1E00F98980818F3649F488E090E0998388839701850122
:140A32000E940E042AC0E889F9898081803731F480E3F501E9
:140A4600819388E781935F0180E190E099838883970185018F
:140A5A000E940E04E889F9898081883591F480E291E05C016E
:140A6E000AC0F501008111270E945804F5010083C501019627
:140A82005C01F5012080222091F780E291E05C013EC06E5FA8
:140A96007F4FFB013297208031802A82022DEE85FF850E94F4
:140AAA009A034F5F5F4F4EC06E5F7F4FFB013297E080F18000
:140ABE008C2D8D3299F40DE2EE85FF850E949A034F5F5F4F9E
:140AD2000BC0F7010691EE85FF850E949A034F5F5F4FC7015C
:140AE60001967C01F7012690222089F72DC06E5F7F4FFB01F4
:140AFA003297A080B180AA2031F4BB2021F48FE891E07C018A
:140B0E00D7CF8C2D8D3299F40DE2EE85FF850E949A034F5F55
:140B22005F4F0BC0F5010081EE85FF850E949A034F5F5F4F3D
:140B3600C50101965C01F5012080222089F704C081EA91E0F9
:140B4A007C01B8CF888999890196998B888BE889F9892080FF
:140B5E00222009F0C3CE8A0124960E945A0324960895E091AB
:140B72003901F0913A010193F0933A01E093390108950E943B
:140B86003903AA92BA9222972C803D8030923A01209239018C
:140B9A00CE0108965C01B982A8822E813F810CE810E00E9423
:140BAE006B042224E0913901F0913A0120822C803D8000917B
:140BC200390110913A01021913092296B990A9902496089541
:00000001FF
