:0C0000000C9430000C94B2000C94D10061
:0B0054003F065B4F666D7D077F6F006D
:14006000CFE5D4E0CDBFDEBFCE51D0400AEA08830024EBE658
:14007400F0E010E0EB36F10711F00192FBCF0083E4E5F0E025
:14008800A0E6B0E010E000E00BBFEF35F10721F0C895319663
:14009C000D92F9CF0E94F000FFCF8FEF8ABB22242BBA87BB59
:1400B00028BA21BA82BB0895F8948BB7806C8BBF8AE085BFF3
:1400C40080EC8ABF789408954A935A930AC04427552702C08D
:1400D8004F5F5F4F84E690E084179507C8F7C80101978C01FA
:1400EC000030010781F75991499108950E9440015801442748
:140100002CC0662727C001E0162F0E944E01202E209428BA90
:14011400623071F4E62FFF27EA0DFB1DE081FF2780E690E039
:14012800E80FF91F808180688BBB0CC0E62FFF27EA0DFB1D6F
:14013C00E081FF2780E690E0E80FF91F20802BBA05E010E0E9
:14015000BDDF63956430B8F24395483208F4D1CF0C944701F3
:140164002A923A920A931A938A932FB62A9208EE13E003C04B
:14017800829B01C00AC01801015010402220C1F73320B1F71C
:14018C0081E080936A0029902FBE89911991099139902990FB
:1401A00018952A923A920A931A938A932FB62A9208EE13E025
:1401B40003C0839B01C00AC01801015010402220C1F73320C4
:1401C800B1F782E080936A0029902FBE8991199109913990CF
:1401DC00299018952497AA24442766275EDF66DF2EC044274D
:1401F0002AC0662725C0A0906A00BB24C5018130E0E09E074A
:1402040029F08230E0E09E0711F001C06A951AE0062F0E9424
:14021800280108831AE0062F0E942A0109831AE0042F0E94C7
:14022C0028010A831AE0042F0E942A010B838E015DDF6395BD
:140240006C33C8F243954C33A0F2D1CF24960895689401C0B4
:14025400E8942A93FA92EA92FF24EE2420E1000FFF1CEE1CEB
:14026800E11610F0E11A03952A95B9F70EF40E2DE990F9904A
:14027C00299108957A936A935A934A93BA92AA920895A990E5
:14029000B99049915991699179910895112319F0000F1A95B1
:0402A400FBCF0895EF
:00000001FF
